:020000040800F2
:1000000000A000206D040008B1040008B10400083D
:10001000B1040008B1040008B104000800000000A9
:10002000000000000000000000000000B104000813
:10003000B104000800000000B1040008B104000889
:10004000B1040008B1040008B1040008B1040008BC
:10005000B1040008B1040008B1040008B1040008AC
:10006000B1040008B1040008B1040008B10400089C
:10007000B1040008B1040008B1040008B10400088C
:10008000B1040008B1040008B1040008B10400087C
:10009000B1040008B1040008B1040008B10400086C
:1000A000B1040008B1040008B1040008B10400085C
:1000B000B1040008B1040008B1040008B10400084C
:1000C000B1040008B1040008B1040008B10400083C
:1000D000B1040008B1040008B1040008B10400082C
:1000E000B1040008B1040008B1040008B10400081C
:1000F000B1040008B1040008B1040008B10400080C
:10010000000000000000000000000000B104000832
:10011000B1040008B1040008B1040008B1040008EB
:10012000B1040008B1040008B1040008B1040008DB
:10013000B1040008B1040008000000000000000045
:10014000B1040008B1040008B10400080000000078
:10015000000000000000000000000000000000009F
:100160000000000000000000B1040008B104000815
:10017000B1040008000000000000000000000000C2
:1001800000000000B104000890B587B000AF3F4BFD
:100190001B683E4A43F4001313603C4B1B683B4A08
:1001A00043F4003313603A4B1B68394A43F08043F1
:1001B0001360374B1B68364A43F0805313604FF08F
:1001C00090431B684FF0904243F400231360314B7F
:1001D0001B68304A43F0700313602F4B1B682E4A94
:1001E00043F4804313602D4B41F64C521A602C4B64
:1001F0001B682B4A43F001031360294B1B68284AF4
:1002000043F008031360274B3C1D0FCB07C423802A
:1002100002341B0C237000237B610FE000BF224BD4
:100220001B6803F08003002BF9D03A1D7B6913444F
:100230001A781E4B1A607B6901337B613B1D18469F
:1002400000F04AF803461A467B699342E6DB184BF6
:100250001B68174A43F400431360154B1B68144A8C
:1002600023F480431360134800F026F8104B1B68FA
:100270000F4A43F4804313600D4B1B680C4A23F470
:10028000004313600B4800F017F8E0E71410024039
:100290000010004824000048181002400C380140AB
:1002A00000380140B40400081C38014028380140DF
:1002B0001410004880841E0080B483B000AF7860C2
:1002C00000BF7B685A1E7A60002BFAD100BF00BFC6
:1002D0000C37BD4680BC704780B582B000AF7860F7
:1002E0007B681B78002B09D07B6801337B607868C2
:1002F000FFF7F2FF03460133DBB200E000231846AC
:100300000837BD4680BD000080B500AF1B4B1B68A1
:100310001A4A43F001031360184B5A681749184BE7
:1003200013404B60154B1B68144A23F0847323F46D
:1003300080331360114B1B68104A23F48023136031
:100340000E4B5B680D4A23F4FE0353600B4BDB6AD4
:100350000A4A23F00F03D362084B1A6B0749094B73
:1003600013400B63054B00229A6000F00FF8064B18
:100370004FF000629A6000BF80BD00BF00100240D5
:100380000CC07FF8CCFC00FF00ED00E080B483B02F
:1003900000AF00237B6000233B60324B1B68314A77
:1003A00043F4803313602F4B1B6803F400333B602E
:1003B0007B6801337B603B68002B03D17B68B3F51E
:1003C000A06FF0D1274B1B6803F40033002B02D041
:1003D00001233B6001E000233B603B68012B3CD1E3
:1003E000214B12221A601F4B1E4A5B6853601D4B43
:1003F0001C4A5B6853601B4B5B681A4A43F480637A
:100400005360184B5B68174A23F47C135360154BF9
:100410005B68144A43F4E8135360124B1B68114A9B
:1004200043F08073136000BF0E4B1B6803F0007332
:10043000002BF9D00B4B5B680A4A23F0030353608F
:10044000084B5B68074A43F00203536000BF054B4B
:100450005B6803F00C03082BF9D100BF0C37BD46D5
:1004600080BC70470010024000200240002103E0E1
:100470000A4B5B584350043109480A4B42189A42D0
:10048000F6D3094A02E0002342F8043B074B9A42A4
:10049000F9D3FFF739FFFFF777FE7047C304000871
:1004A00000000020000000200000002000000020CC
:1004B000FEE7000053746172742070726F6772619E
:0304C0006D0A00C2
:0400000508000000EF
:00000001FF
