:020000040800F2
:1000000000A0002085030008C9030008C9030008F8
:10001000C9030008C9030008C90300080000000064
:10002000000000000000000000000000C9030008FC
:10003000C903000800000000C9030008C903000844
:10004000C9030008C9030008C9030008C903000860
:10005000C9030008C9030008C9030008C903000850
:10006000C9030008C9030008C9030008C903000840
:10007000C9030008C9030008C9030008C903000830
:10008000C9030008C9030008C9030008C903000820
:10009000C9030008C9030008C9030008C903000810
:1000A000C9030008C9030008C9030008C903000800
:1000B000C9030008C9030008C9030008C9030008F0
:1000C000C9030008C9030008C9030008C9030008E0
:1000D000C9030008C9030008C9030008C9030008D0
:1000E000C9030008C9030008C9030008C9030008C0
:1000F000C9030008C9030008C9030008C9030008B0
:10010000000000000000000000000000C90300081B
:10011000C9030008C9030008C9030008C90300088F
:10012000C9030008C9030008C9030008C90300087F
:10013000C9030008C9030008000000000000000017
:10014000C9030008C9030008C90300080000000033
:10015000000000000000000000000000000000009F
:100160000000000000000000C9030008C9030008E7
:10017000C9030008000000000000000000000000AB
:1001800000000000C903000880B500AF184B1B68D1
:10019000174A43F400131360164B1B68154A43F0CB
:1001A00080431360134B1B68124A43F08053136063
:1001B000114B1B68104A43F4004313600E4B1B683D
:1001C0000D4A23F4804313600C4800F019F80A4BE1
:1001D0001B68094A43F480431360074B1B68064AB7
:1001E00023F400431360054800F00AF8E0E700BF7D
:1001F00014100240001000481410004880841E00B3
:1002000080B483B000AF786000BF7B685A1E7A600C
:10021000002BFAD100BF00BF0C37BD4680BC704731
:1002200080B500AF1B4B1B681A4A43F001031360F3
:10023000184B5A681749184B13404B60154B1B68F5
:10024000144A23F0847323F480331360114B1B682A
:10025000104A23F4802313600E4B5B680D4A23F48D
:10026000FE0353600B4BDB6A0A4A23F00F03D36291
:10027000084B1A6B0749094B13400B63054B0022CF
:100280009A6000F00FF8064B4FF000629A6000BFD2
:1002900080BD00BF001002400CC07FF8CCFC00FF06
:1002A00000ED00E080B483B000AF00237B6000234A
:1002B0003B60324B1B68314A43F4803313602F4B51
:1002C0001B6803F400333B607B6801337B603B6851
:1002D000002B03D17B68B3F5A06FF0D1274B1B68CF
:1002E00003F40033002B02D001233B6001E0002324
:1002F0003B603B68012B3CD1214B12221A601F4B03
:100300001E4A5B6853601D4B1C4A5B6853601B4B65
:100310005B681A4A43F480635360184B5B68174A62
:1003200023F47C135360154B5B68144A43F4E813C1
:100330005360124B1B68114A43F08073136000BF77
:100340000E4B1B6803F00073002BF9D00B4B5B685E
:100350000A4A23F003035360084B5B68074A43F0E3
:100360000203536000BF054B5B6803F00C03082BCE
:10037000F9D100BF0C37BD4680BC70470010024069
:1003800000200240002103E00A4B5B584350043137
:1003900009480A4B42189A42F6D3094A02E0002360
:1003A00042F8043B074B9A42F9D3FFF739FFFFF7B6
:1003B000EBFE7047CA030008000000200000002088
:0A03C0000000002000000020FEE70E
:0400000508000000EF
:00000001FF
