:020000040800F2
:1000000000A0002075040008B9040008B904000825
:10001000B9040008B9040008B90400080000000091
:10002000000000000000000000000000B90400080B
:10003000B904000800000000B9040008B904000871
:10004000B9040008B9040008B9040008B90400089C
:10005000B9040008B9040008B9040008B90400088C
:10006000B9040008B9040008B9040008B90400087C
:10007000B9040008B9040008B9040008B90400086C
:10008000B9040008B9040008B9040008B90400085C
:10009000B9040008B9040008B9040008B90400084C
:1000A000B9040008B9040008B9040008B90400083C
:1000B000B9040008B9040008B9040008B90400082C
:1000C000B9040008B9040008B9040008B90400081C
:1000D000B9040008B9040008B9040008B90400080C
:1000E000B9040008B9040008B9040008B9040008FC
:1000F000B9040008B9040008B9040008B9040008EC
:10010000000000000000000000000000B90400082A
:10011000B9040008B9040008B9040008B9040008CB
:10012000B9040008B9040008B9040008B9040008BB
:10013000B9040008B9040008000000000000000035
:10014000B9040008B9040008B90400080000000060
:10015000000000000000000000000000000000009F
:100160000000000000000000B9040008B904000805
:10017000B9040008000000000000000000000000BA
:1001800000000000B904000880B500AF2E4B1B68CA
:100190002D4A43F4001313602B4B1B682A4A43F487
:1001A00000331360294B1B68284A43F080431360D7
:1001B000264B1B68254A43F0805313604FF0904351
:1001C0001B684FF0904243F400231360204B1B68E0
:1001D0001F4A43F0700313601E4B1B681D4A43F413
:1001E000804313601C4B41F64C521A601B4B1B683A
:1001F0001A4A43F001031360184B1B68174A43F077
:1002000008031360164800F059F8164B1B68154A8E
:1002100043F400431360134B1B68124A23F48043DA
:100220001360114800F022F80E4B1B680D4A43F48E
:10023000804313600B4B1B680A4A23F4004313608E
:10024000094800F013F8E0E71410024000100048DD
:1002500024000048181002400C38014000380140CA
:10026000BC0400081410004880841E0080B483B0D1
:1002700000AF786000BF7B685A1E7A60002BFAD10D
:1002800000BF00BF0C37BD4680BC704780B582B050
:1002900000AF78607B681B78002B09D07B68013346
:1002A0007B607868FFF7F2FF03460133DBB200E0C2
:1002B000002318460837BD4680BD000080B584B0D5
:1002C00000AF78607868FFF7E1FF0346FB72002318
:1002D000FB600FE000BF0C4B1B6803F08003002B9A
:1002E000F9D07B685A1C7A601A78084B1A60FB6850
:1002F0000133FB60FB7AFA689A42EBDB00BF00BF78
:100300001037BD4680BD00BF1C3801402838014071
:1003100080B500AF1B4B1B681A4A43F00103136002
:10032000184B5A681749184B13404B60154B1B6804
:10033000144A23F0847323F480331360114B1B6839
:10034000104A23F4802313600E4B5B680D4A23F49C
:10035000FE0353600B4BDB6A0A4A23F00F03D362A0
:10036000084B1A6B0749094B13400B63054B0022DE
:100370009A6000F00FF8064B4FF000629A6000BFE1
:1003800080BD00BF001002400CC07FF8CCFC00FF15
:1003900000ED00E080B483B000AF00237B60002359
:1003A0003B60324B1B68314A43F4803313602F4B60
:1003B0001B6803F400333B607B6801337B603B6860
:1003C000002B03D17B68B3F5A06FF0D1274B1B68DE
:1003D00003F40033002B02D001233B6001E0002333
:1003E0003B603B68012B3CD1214B12221A601F4B12
:1003F0001E4A5B6853601D4B1C4A5B6853601B4B75
:100400005B681A4A43F480635360184B5B68174A71
:1004100023F47C135360154B5B68144A43F4E813D0
:100420005360124B1B68114A43F08073136000BF86
:100430000E4B1B6803F00073002BF9D00B4B5B686D
:100440000A4A23F003035360084B5B68074A43F0F2
:100450000203536000BF054B5B6803F00C03082BDD
:10046000F9D100BF0C37BD4680BC70470010024078
:1004700000200240002103E00A4B5B584350043146
:1004800009480A4B42189A42F6D3094A02E000236F
:1004900042F8043B074B9A42F9D3FFF739FFFFF7C5
:1004A00073FE7047CB04000800000020000000200D
:1004B0000000002000000020FEE70000537461727D
:0B04C000742070726F6772616D0A009B
:0400000508000000EF
:00000001FF
