:020000040800F2
:1000000000A000209D040008E1040008E1040008AD
:10001000E1040008E1040008E10400080000000019
:10002000000000000000000000000000E1040008E3
:10003000E104000800000000E1040008E1040008F9
:10004000E1040008E1040008E1040008E1040008FC
:10005000E1040008E1040008E1040008E1040008EC
:10006000E1040008E1040008E1040008E1040008DC
:10007000E1040008E1040008E1040008E1040008CC
:10008000E1040008E1040008E1040008E1040008BC
:10009000E1040008E1040008E1040008E1040008AC
:1000A000E1040008E1040008E1040008E10400089C
:1000B000E1040008E1040008E1040008E10400088C
:1000C000E1040008E1040008E1040008E10400087C
:1000D000E104000815030008E1040008E104000839
:1000E000E1040008E1040008E1040008E10400085C
:1000F000E1040008E1040008E1040008E10400084C
:10010000000000000000000000000000E104000802
:10011000E1040008E1040008E1040008E10400082B
:10012000E1040008E1040008E1040008E10400081B
:10013000E1040008E10400080000000000000000E5
:10014000E1040008E1040008E104000800000000E8
:10015000000000000000000000000000000000009F
:100160000000000000000000E1040008E1040008B5
:10017000E104000800000000000000000000000092
:1001800000000000E104000880B500AF3F4B1B6891
:100190003E4A43F4001313603C4B1B683B4A43F454
:1001A000003313603A4B1B68394A43F080431360B5
:1001B000374B1B68364A43F0805313604FF090432F
:1001C0001B684FF0904243F400231360314B1B68CF
:1001D000304A43F0700313604FF090431B684FF0B8
:1001E000904243F4001313602A4B1B68294A43F4DE
:1001F000E0631360284B1B68274A43F48043136075
:10020000264B41F64C521A60254B1B68244A43F09A
:1002100001031360224B1B68214A43F0080313605B
:100220001F4B1B681E4A43F0040313601C4B1B68E2
:100230001B4A43F0200313601A4B1B68194A43F012
:100240002003136062B6184800F044F8174B1B688F
:10025000164A43F400431360144B1B68134A23F4FB
:1002600080431360124800F025F8104B1B680F4ABA
:1002700043F4804313600D4B1B680C4A23F4004386
:1002800013600B4800F016F8E0E700BF14100240BE
:100290000010004824000048181002400C380140AB
:1002A0000038014004E100E0E404000814100048B4
:1002B00080841E0080B483B000AF786000BF7B688C
:1002C0005A1E7A60002BFAD100BF00BF0C37BD4622
:1002D00080BC704780B483B000AF78600CE000BF92
:1002E0000A4B1B6803F08003002BF9D07B685A1C73
:1002F0007A601A78064B1A607B681B78002BEED167
:1003000000BF00BF0C37BD4680BC70471C380140A1
:100310002838014080B582B000AF054B1B68FB71E7
:100320000448FFF7D7FF00BF0837BD4680BD00BFB8
:1003300024380140F404000880B500AF1B4B1B6853
:100340001A4A43F001031360184B5A681749184BB7
:1003500013404B60154B1B68144A23F0847323F43D
:1003600080331360114B1B68104A23F48023136001
:100370000E4B5B680D4A23F4FE0353600B4BDB6AA4
:100380000A4A23F00F03D362084B1A6B0749094B43
:1003900013400B63054B00229A6000F00FF8064BE8
:1003A0004FF000629A6000BF80BD00BF00100240A5
:1003B0000CC07FF8CCFC00FF00ED00E080B483B0FF
:1003C00000AF00237B6000233B60324B1B68314A47
:1003D00043F4803313602F4B1B6803F400333B60FE
:1003E0007B6801337B603B68002B03D17B68B3F5EE
:1003F000A06FF0D1274B1B6803F40033002B02D011
:1004000001233B6001E000233B603B68012B3CD1B2
:10041000214B12221A601F4B1E4A5B6853601D4B12
:100420001C4A5B6853601B4B5B681A4A43F4806349
:100430005360184B5B68174A23F47C135360154BC9
:100440005B68144A43F4E8135360124B1B68114A6B
:1004500043F08073136000BF0E4B1B6803F0007302
:10046000002BF9D00B4B5B680A4A23F0030353605F
:10047000084B5B68074A43F00203536000BF054B1B
:100480005B6803F00C03082BF9D100BF0C37BD46A5
:1004900080BC70470010024000200240002103E0B1
:1004A0000A4B5B584350043109480A4B42189A42A0
:1004B000F6D3094A02E0002342F8043B074B9A4274
:1004C000F9D3FFF739FFFFF75FFE7047FD0400081F
:1004D000000000200000002000000020000000209C
:1004E000FEE7000053746172742070726F6772616E
:0D04F0006D0A0000416E73776572210A00ED
:0400000508000000EF
:00000001FF
